{
  "contractName": "Concatenate",
  "abi": [
    {
      "constant": true,
      "inputs": [],
      "name": "s",
      "outputs": [
        {
          "name": "",
          "type": "string"
        }
      ],
      "payable": false,
      "stateMutability": "view",
      "type": "function"
    },
    {
      "constant": false,
      "inputs": [
        {
          "name": "s1",
          "type": "string"
        },
        {
          "name": "s2",
          "type": "string"
        }
      ],
      "name": "concat",
      "outputs": [
        {
          "name": "",
          "type": "string"
        }
      ],
      "payable": false,
      "stateMutability": "nonpayable",
      "type": "function"
    }
  ],
  "bytecode": "0x6060604052341561000f57600080fd5b61041a8061001e6000396000f30060606040526004361061004c576000357c0100000000000000000000000000000000000000000000000000000000900463ffffffff16806386b714e21461005157806389c19ddb146100df575b600080fd5b341561005c57600080fd5b6100646101f8565b6040518080602001828103825283818151815260200191508051906020019080838360005b838110156100a4578082015181840152602081019050610089565b50505050905090810190601f1680156100d15780820380516001836020036101000a031916815260200191505b509250505060405180910390f35b34156100ea57600080fd5b61017d600480803590602001908201803590602001908080601f0160208091040260200160405190810160405280939291908181526020018383808284378201915050505050509190803590602001908201803590602001908080601f01602080910402602001604051908101604052809392919081815260200183838082843782019150505050505091905050610296565b6040518080602001828103825283818151815260200191508051906020019080838360005b838110156101bd5780820151818401526020810190506101a2565b50505050905090810190601f1680156101ea5780820380516001836020036101000a031916815260200191505b509250505060405180910390f35b60008054600181600116156101000203166002900480601f01602080910402602001604051908101604052809291908181526020018280546001816001161561010002031660029004801561028e5780601f106102635761010080835404028352916020019161028e565b820191906000526020600020905b81548152906001019060200180831161027157829003601f168201915b505050505081565b61029e6103c0565b6102c16102aa836102c9565b6102b3856102c9565b6102f790919063ffffffff16565b905092915050565b6102d16103d4565b600060208301905060408051908101604052808451815260200182815250915050919050565b6102ff6103c0565b6103076103c0565b600083600001518560000151016040518059106103215750595b9080825280601f01601f191660200182016040525091506020820190506103518186602001518760000151610375565b61036a8560000151820185602001518660000151610375565b819250505092915050565b60005b60208210151561039d5782518452602084019350602083019250602082039150610378565b6001826020036101000a0390508019835116818551168181178652505050505050565b602060405190810160405280600081525090565b6040805190810160405280600081526020016000815250905600a165627a7a723058208ca4e6b1eff0bd465f86cf23f6df647c5c5eb667fb80f3b862b458d176252bfd0029",
  "source": "pragma solidity 0.4.19;\n\nimport \"./strings.sol\";\n\ncontract Concatenate {\n    using strings for *;\n    string public s;\n\n    function concat(string s1, string s2) returns (string) {\n        return s1.toSlice().concat(s2.toSlice());\n    }\n}\n",
  "sourcePath": "/Users/vitali/IdeaProjects/blockchain-dev/sp18-lab02/Intro to Solidity/contracts/concatenate.sol",
  "compiler": {
    "name": "solc",
    "version": "0.4.19+commit.c4cbbb05.Emscripten.clang"
  },
  "schemaVersion": "1.0.1",
  "updatedAt": "2018-02-22T22:44:05.528Z"
}