{
  "contractName": "Fibonacci",
  "abi": [
    {
      "constant": true,
      "inputs": [
        {
          "name": "n",
          "type": "int256"
        }
      ],
      "name": "fibonacci",
      "outputs": [
        {
          "name": "",
          "type": "int256"
        }
      ],
      "payable": false,
      "stateMutability": "view",
      "type": "function"
    }
  ],
  "bytecode": "0x6060604052341561000f57600080fd5b60e38061001d6000396000f300606060405260043610603f576000357c0100000000000000000000000000000000000000000000000000000000900463ffffffff168063441e0587146044575b600080fd5b3415604e57600080fd5b606260048080359060200190919050506078565b6040518082815260200191505060405180910390f35b600080600080600080935060019250600090505b6002860381121560ab578284019150829350819250806001019050608c565b819450505050509190505600a165627a7a723058206a7233fac0f0974d8bc7a6a5f9563eed495e0207e3d9ece157f07caa33b958690029",
  "source": "pragma solidity 0.4.19;\n\n\ncontract Fibonacci {\n    // assuming the sequence starts at 0\n    function fibonacci(int n) public view returns (int) {\n        int secondToLast = 0;\n        int last = 1;\n        int result;\n\n        for (int i = 0; i < n - 2; ++i) {\n            result = secondToLast + last;\n            secondToLast = last;\n            last = result;\n        }\n\n        return result;\n    }\n}\n",
  "sourcePath": "/Users/vitali/IdeaProjects/blockchain-dev/sp18-lab02/Intro to Solidity/contracts/fibonacci.sol",
  "compiler": {
    "name": "solc",
    "version": "0.4.19+commit.c4cbbb05.Emscripten.clang"
  },
  "schemaVersion": "1.0.1",
  "updatedAt": "2018-02-22T22:44:05.526Z"
}