{
  "contractName": "XOR",
  "abi": [
    {
      "constant": false,
      "inputs": [
        {
          "name": "num1",
          "type": "string"
        },
        {
          "name": "num2",
          "type": "string"
        }
      ],
      "name": "xor",
      "outputs": [
        {
          "name": "",
          "type": "string"
        }
      ],
      "payable": false,
      "stateMutability": "nonpayable",
      "type": "function"
    }
  ],
  "bytecode": "0x6060604052341561000f57600080fd5b6108288061001e6000396000f300606060405260043610610041576000357c0100000000000000000000000000000000000000000000000000000000900463ffffffff168063573d76e714610046575b600080fd5b341561005157600080fd5b6100e4600480803590602001908201803590602001908080601f0160208091040260200160405190810160405280939291908181526020018383808284378201915050505050509190803590602001908201803590602001908080601f0160208091040260200160405190810160405280939291908181526020018383808284378201915050505050509190505061015f565b6040518080602001828103825283818151815260200191508051906020019080838360005b83811015610124578082015181840152602081019050610109565b50505050905090810190601f1680156101515780820380516001836020036101000a031916815260200191505b509250505060405180910390f35b6101676107d4565b61016f6107e8565b6101776107e8565b61017f6107e8565b600086935085925083516040518059106101965750595b9080825280601f01601f19166020018201604052509150825184511415156101bd57600080fd5b600090505b83518110156107c6577f300000000000000000000000000000000000000000000000000000000000000084828151811015156101fa57fe5b9060200101517f010000000000000000000000000000000000000000000000000000000000000090047f0100000000000000000000000000000000000000000000000000000000000000027effffffffffffffffffffffffffffffffffffffffffffffffffffffffffffff191614801561030d57507f3000000000000000000000000000000000000000000000000000000000000000838281518110151561029e57fe5b9060200101517f010000000000000000000000000000000000000000000000000000000000000090047f0100000000000000000000000000000000000000000000000000000000000000027effffffffffffffffffffffffffffffffffffffffffffffffffffffffffffff1916145b8061045657507f3100000000000000000000000000000000000000000000000000000000000000848281518110151561034257fe5b9060200101517f010000000000000000000000000000000000000000000000000000000000000090047f0100000000000000000000000000000000000000000000000000000000000000027effffffffffffffffffffffffffffffffffffffffffffffffffffffffffffff191614801561045557507f310000000000000000000000000000000000000000000000000000000000000083828151811015156103e657fe5b9060200101517f010000000000000000000000000000000000000000000000000000000000000090047f0100000000000000000000000000000000000000000000000000000000000000027effffffffffffffffffffffffffffffffffffffffffffffffffffffffffffff1916145b5b156104bf577f3000000000000000000000000000000000000000000000000000000000000000828281518110151561048a57fe5b9060200101907effffffffffffffffffffffffffffffffffffffffffffffffffffffffffffff1916908160001a9053506107b9565b7f300000000000000000000000000000000000000000000000000000000000000084828151811015156104ee57fe5b9060200101517f010000000000000000000000000000000000000000000000000000000000000090047f0100000000000000000000000000000000000000000000000000000000000000027effffffffffffffffffffffffffffffffffffffffffffffffffffffffffffff191614801561060157507f3100000000000000000000000000000000000000000000000000000000000000838281518110151561059257fe5b9060200101517f010000000000000000000000000000000000000000000000000000000000000090047f0100000000000000000000000000000000000000000000000000000000000000027effffffffffffffffffffffffffffffffffffffffffffffffffffffffffffff1916145b8061074a57507f3100000000000000000000000000000000000000000000000000000000000000848281518110151561063657fe5b9060200101517f010000000000000000000000000000000000000000000000000000000000000090047f0100000000000000000000000000000000000000000000000000000000000000027effffffffffffffffffffffffffffffffffffffffffffffffffffffffffffff191614801561074957507f300000000000000000000000000000000000000000000000000000000000000083828151811015156106da57fe5b9060200101517f010000000000000000000000000000000000000000000000000000000000000090047f0100000000000000000000000000000000000000000000000000000000000000027effffffffffffffffffffffffffffffffffffffffffffffffffffffffffffff1916145b5b156107b3577f3100000000000000000000000000000000000000000000000000000000000000828281518110151561077e57fe5b9060200101907effffffffffffffffffffffffffffffffffffffffffffffffffffffffffffff1916908160001a9053506107b8565b6107ca565b5b80806001019150506101c2565b8194505b5050505092915050565b602060405190810160405280600081525090565b6020604051908101604052806000815250905600a165627a7a72305820e658f48f6fd017d96f59f3a892c81945a12d3c2f304c3638276177f9543744790029",
  "source": "pragma solidity 0.4.19;\n\n\ncontract XOR {\n    function xor(string num1, string num2) public returns (string) {\n        bytes memory _num1 = bytes(num1);\n        bytes memory _num2 = bytes(num2);\n        bytes memory xored = new bytes(_num1.length);\n\n        require(_num1.length == _num2.length);\n\n        for (uint i = 0; i < _num1.length; i ++) {\n            if (((_num1[i] == \"0\") && (_num2[i] == \"0\"))\n            || ((_num1[i] == \"1\") && (_num2[i] == \"1\"))) {\n                xored[i] = \"0\";\n            }\n            else if (((_num1[i] == \"0\") && (_num2[i] == \"1\"))\n            || ((_num1[i] == \"1\") && (_num2[i] == \"0\"))) {\n                xored[i] = \"1\";\n            }\n            else {\n                return;\n            }\n        }\n\n        return string(xored);\n    }\n}\n",
  "sourcePath": "/Users/vitali/IdeaProjects/blockchain-dev/sp18-lab02/Intro to Solidity/contracts/xor.sol",
  "compiler": {
    "name": "solc",
    "version": "0.4.19+commit.c4cbbb05.Emscripten.clang"
  },
  "schemaVersion": "1.0.1",
  "updatedAt": "2018-02-22T22:44:05.527Z"
}